9900000001001PA112233                 1                        DE                                 1  2  Dr        Ready                              Randall                                                               M.D.      Primary Care                       123 Twilight Dr                                                       Canonsburg                         PA15317      7246667777                                                                                                                                                                                                                                                                                                                                                                                                                                                                                                                                                                                                                        
9900000002001OH223344                                          DE                                    PC           Opal                               Edmund                                                                M.D.      Preferred Primary Care Associates  455 Linden Ave.                                                       Cleveland                          OH44102      2169998787                                                                                                                                                                                                                                                                                                                                                                                                                                                                                                                                                                                                                        
9900000003001PA334455                                          DE                                    PC           Gentry                             Waldo                                                                 M.D       UDCR Medical Center                6344 S.R. 90                                                          Philadelphia                       PA19102      2158520098                                                                                                                                                                                                                                                                                                                                                                                                                                                                                                                                                                                                                        
